{
  "_format": "hh-sol-artifact-1",
  "contractName": "Multiplier",
  "sourceName": "contracts/multiplier.sol",
  "abi": [
    {
      "inputs": [
        {
          "internalType": "address",
          "name": "verifier_",
          "type": "address"
        }
      ],
      "stateMutability": "nonpayable",
      "type": "constructor"
    },
    {
      "inputs": [
        {
          "internalType": "string",
          "name": "name_",
          "type": "string"
        },
        {
          "internalType": "uint256[2]",
          "name": "a_",
          "type": "uint256[2]"
        },
        {
          "internalType": "uint256[2][2]",
          "name": "b_",
          "type": "uint256[2][2]"
        },
        {
          "internalType": "uint256[2]",
          "name": "c_",
          "type": "uint256[2]"
        },
        {
          "internalType": "uint256[1]",
          "name": "input_",
          "type": "uint256[1]"
        }
      ],
      "name": "iKnowMultipliers",
      "outputs": [],
      "stateMutability": "nonpayable",
      "type": "function"
    },
    {
      "inputs": [
        {
          "internalType": "string",
          "name": "",
          "type": "string"
        }
      ],
      "name": "knowsMultiples",
      "outputs": [
        {
          "internalType": "bool",
          "name": "",
          "type": "bool"
        }
      ],
      "stateMutability": "view",
      "type": "function"
    },
    {
      "inputs": [],
      "name": "verifier",
      "outputs": [
        {
          "internalType": "contract IVerifier",
          "name": "",
          "type": "address"
        }
      ],
      "stateMutability": "view",
      "type": "function"
    }
  ],
  "bytecode": "0x608060405234801561001057600080fd5b50604051610d8c380380610d8c833981810160405281019061003291906100dc565b80600160006101000a81548173ffffffffffffffffffffffffffffffffffffffff021916908373ffffffffffffffffffffffffffffffffffffffff16021790555050610109565b600080fd5b600073ffffffffffffffffffffffffffffffffffffffff82169050919050565b60006100a98261007e565b9050919050565b6100b98161009e565b81146100c457600080fd5b50565b6000815190506100d6816100b0565b92915050565b6000602082840312156100f2576100f1610079565b5b6000610100848285016100c7565b91505092915050565b610c74806101186000396000f3fe608060405234801561001057600080fd5b50600436106100415760003560e01c80632b7ac3f3146100465780638ccc6ce8146100645780639f7bed4f14610080575b600080fd5b61004e6100b0565b60405161005b919061031c565b60405180910390f35b61007e600480360381019061007991906106df565b6100d6565b005b61009a60048036038101906100959190610778565b610267565b6040516100a791906107dc565b60405180910390f35b600160009054906101000a900473ffffffffffffffffffffffffffffffffffffffff1681565b600015156000866040516100ea9190610871565b908152602001604051809103902060009054906101000a900460ff16151514610148576040517f08c379a000000000000000000000000000000000000000000000000000000000815260040161013f906108e5565b60405180910390fd5b600160009054906101000a900473ffffffffffffffffffffffffffffffffffffffff1673ffffffffffffffffffffffffffffffffffffffff166343753b4d858585856040518563ffffffff1660e01b81526004016101a99493929190610b32565b602060405180830381865afa1580156101c6573d6000803e3d6000fd5b505050506040513d601f19601f820116820180604052508101906101ea9190610ba5565b610229576040517f08c379a000000000000000000000000000000000000000000000000000000000815260040161022090610c1e565b60405180910390fd5b600160008660405161023b9190610871565b908152602001604051809103902060006101000a81548160ff0219169083151502179055505050505050565b6000818051602081018201805184825260208301602085012081835280955050505050506000915054906101000a900460ff1681565b600073ffffffffffffffffffffffffffffffffffffffff82169050919050565b6000819050919050565b60006102e26102dd6102d88461029d565b6102bd565b61029d565b9050919050565b60006102f4826102c7565b9050919050565b6000610306826102e9565b9050919050565b610316816102fb565b82525050565b6000602082019050610331600083018461030d565b92915050565b6000604051905090565b600080fd5b600080fd5b600080fd5b600080fd5b6000601f19601f8301169050919050565b7f4e487b7100000000000000000000000000000000000000000000000000000000600052604160045260246000fd5b61039e82610355565b810181811067ffffffffffffffff821117156103bd576103bc610366565b5b80604052505050565b60006103d0610337565b90506103dc8282610395565b919050565b600067ffffffffffffffff8211156103fc576103fb610366565b5b61040582610355565b9050602081019050919050565b82818337600083830152505050565b600061043461042f846103e1565b6103c6565b9050828152602081018484840111156104505761044f610350565b5b61045b848285610412565b509392505050565b600082601f8301126104785761047761034b565b5b8135610488848260208601610421565b91505092915050565b600067ffffffffffffffff8211156104ac576104ab610366565b5b602082029050919050565b600080fd5b6000819050919050565b6104cf816104bc565b81146104da57600080fd5b50565b6000813590506104ec816104c6565b92915050565b600061050561050084610491565b6103c6565b9050806020840283018581111561051f5761051e6104b7565b5b835b81811015610548578061053488826104dd565b845260208401935050602081019050610521565b5050509392505050565b600082601f8301126105675761056661034b565b5b60026105748482856104f2565b91505092915050565b600067ffffffffffffffff82111561059857610597610366565b5b602082029050919050565b60006105b66105b18461057d565b6103c6565b905080604084028301858111156105d0576105cf6104b7565b5b835b818110156105f957806105e58882610552565b8452602084019350506040810190506105d2565b5050509392505050565b600082601f8301126106185761061761034b565b5b60026106258482856105a3565b91505092915050565b600067ffffffffffffffff82111561064957610648610366565b5b602082029050919050565b60006106676106628461062e565b6103c6565b90508060208402830185811115610681576106806104b7565b5b835b818110156106aa578061069688826104dd565b845260208401935050602081019050610683565b5050509392505050565b600082601f8301126106c9576106c861034b565b5b60016106d6848285610654565b91505092915050565b600080600080600061014086880312156106fc576106fb610341565b5b600086013567ffffffffffffffff81111561071a57610719610346565b5b61072688828901610463565b955050602061073788828901610552565b945050606061074888828901610603565b93505060e061075988828901610552565b92505061012061076b888289016106b4565b9150509295509295909350565b60006020828403121561078e5761078d610341565b5b600082013567ffffffffffffffff8111156107ac576107ab610346565b5b6107b884828501610463565b91505092915050565b60008115159050919050565b6107d6816107c1565b82525050565b60006020820190506107f160008301846107cd565b92915050565b600081519050919050565b600081905092915050565b60005b8381101561082b578082015181840152602081019050610810565b8381111561083a576000848401525b50505050565b600061084b826107f7565b6108558185610802565b935061086581856020860161080d565b80840191505092915050565b600061087d8284610840565b915081905092915050565b600082825260208201905092915050565b7f596f7520616c7265616479206b6e6f777320746865206d756c7469706c657300600082015250565b60006108cf601f83610888565b91506108da82610899565b602082019050919050565b600060208201905081810360008301526108fe816108c2565b9050919050565b600060029050919050565b600081905092915050565b6000819050919050565b61092e816104bc565b82525050565b60006109408383610925565b60208301905092915050565b6000602082019050919050565b61096281610905565b61096c8184610910565b92506109778261091b565b8060005b838110156109a857815161098f8782610934565b965061099a8361094c565b92505060018101905061097b565b505050505050565b600060029050919050565b600081905092915050565b6000819050919050565b600081905092915050565b6109e481610905565b6109ee81846109d0565b92506109f98261091b565b8060005b83811015610a2a578151610a118782610934565b9650610a1c8361094c565b9250506001810190506109fd565b505050505050565b6000610a3e83836109db565b60408301905092915050565b6000602082019050919050565b610a60816109b0565b610a6a81846109bb565b9250610a75826109c6565b8060005b83811015610aa6578151610a8d8782610a32565b9650610a9883610a4a565b925050600181019050610a79565b505050505050565b600060019050919050565b600081905092915050565b6000819050919050565b6000602082019050919050565b610ae481610aae565b610aee8184610ab9565b9250610af982610ac4565b8060005b83811015610b2a578151610b118782610934565b9650610b1c83610ace565b925050600181019050610afd565b505050505050565b600061012082019050610b486000830187610959565b610b556040830186610a57565b610b6260c0830185610959565b610b70610100830184610adb565b95945050505050565b610b82816107c1565b8114610b8d57600080fd5b50565b600081519050610b9f81610b79565b92915050565b600060208284031215610bbb57610bba610341565b5b6000610bc984828501610b90565b91505092915050565b7f496e76616c69642070726f6f6600000000000000000000000000000000000000600082015250565b6000610c08600d83610888565b9150610c1382610bd2565b602082019050919050565b60006020820190508181036000830152610c3781610bfb565b905091905056fea26469706673582212202fe2a5d7997e48d47f5b7092cc3708c89a5154e5fb0667d2e4cec2243a02a2e764736f6c634300080b0033",
  "linkReferences": {},
  "deployedLinkReferences": {},
  "address": "0x920F9461F1DbE00eB0798dC22cffDa5d9cB03b9D"
}